:020000040800F2
:1000000050020120E90A0008BD080008BF080008E6
:10001000C3080008C7080008CB080008000000005B
:10002000000000000000000000000000CF080008F1
:10003000D108000800000000D3080008D508000817
:10004000030B0008030B0008030B0008030B000858
:10005000030B0008030B0008030B0008030B000848
:10006000030B0008030B0008030B0008030B000838
:10007000030B0008030B0008030B0008030B000828
:10008000030B0008030B0008030B0008030B000818
:10009000030B0008030B0008030B0008030B000808
:1000A000030B0008030B0008030B0008030B0008F8
:1000B000030B0008EB040008030B0008030B000807
:1000C000030B0008030B0008030B0008030B0008D8
:1000D000030B0008B1320008030B00081D8D000857
:1000E000030B0008030B0008030B0008030B0008B8
:1000F000030B0008030B0008030B0008030B0008A8
:10010000030B0008030B0008030B0008030B000897
:10011000030B0008030B0008030B0008030B000887
:10012000030B00083B810008030B0008030B0008C9
:10013000030B0008030B0008030B0008030B000867
:10014000030B0008030B0008030B0008030B000857
:10015000030B0008030B0008030B0008030B000847
:10016000030B0008030B0008030B0008030B000837
:10017000030B0008030B00087D800008030B000838
:10018000030B0008030B000800F002F800F04FF822
:100190000AA090E8000C82448344AAF10107DA45E2
:1001A00001D100F044F8AFF2090EBAE80F0013F0E5
:1001B000010F18BFFB1A43F001031847B4C6000033
:1001C000D4C60000103A24BF78C878C1FAD85207C4
:1001D00024BF30C830C144BF04680C6070470000C1
:1001E0000023002400250026103A28BF78C1FBD840
:1001F000520728BF30C148BF0B60704766290AF01C
:100200000C84642908F04C87782908F08387002043
:1002100070471FB50AF0F7FB09F010FB040000203F
:1002200000210AF04FF8E0601FBD10B510BD09F0C5
:1002300003FC1146FFF7EDFF00F008F809F021FC80
:1002400003B4FFF7F2FF03BC02F0D2FF1CB54FF07E
:10025000FF30FE4908604FF4A06000F065FCA82064
:1002600002F044FF4FF4E13002F0D0FF4FF416509B
:1002700008F002FD03F083FF4FF47840F449088052
:1002800018E0F4A010210B46F022CDE900108221E5
:100290001E2007F0C0FEC82002F08AFF4FF6FF7054
:1002A000AA23EF22822100901E2007F019FCC8200B
:1002B00002F07EFF08F08AF90028E2D14FF41673AD
:1002C0004FF448720021084608F0E0FBE4A010213A
:1002D0000B46C822CDE9001082211E2007F09BFEAC
:1002E0004FF47A7002F064FF08F002FA07F034FF6E
:1002F0004FF48060C3004FF47A5200210090DB4835
:1003000007F0C5FEDA480188DAA008F0A9FED8484F
:100310004188D8A008F0A4FEC821A02008F072FBF4
:1003200007F0A6FF322003F009F8D3480168D3484C
:1003300001F027FFD2480168D04801F024FF9FED6B
:10034000D11ADFEDD10AB0EE080AD04808F024FC3B
:100350009FEDCC1ADFEDCC0AB0EE080ACC4808F0CD
:100360001BFC1E2008F04EFCBEE00020C94908809E
:100370000021084603F090F803F071F8002492E0A1
:1003800000258BE09F2D0BD1C2480088401CC1493D
:100390000880601C81B2002003F07EF803F05FF853
:1003A000AA480068401C002868D10A2C01DA012004
:1003B00000E00020BE2C01DD012100E00021084307
:1003C0000A2D01DA012100E00021084308B9962D29
:1003D00004DD4FF6FF70B04908805DE004EB840057
:1003E000A24901EB801030F81500C01244F68B4191
:1003F00010FB01F104EB84009C4A02EB801030F802
:100400001500C0F3451049F2456200FB021004EBF1
:100410008401964A02EB811111F8151001F01F01B9
:1004200040F2D31211FB02F100EB011000149B49C2
:1004300008800846008817281CDB9448406BA842B7
:1004400001DA924845639148C06BA84201DD8F48AC
:10045000C5638F48806BA04201DA8D4884638C4865
:10046000006CA04201DD8A4804644FF6FF708A499F
:10047000088010E00020884908800CE0734800687C
:10048000012808D104EB8400784901EB801030F892
:1004900015008149088000BF681C85B2A02DFFF6B9
:1004A00071AF601C84B2C82CFFF66AAF7749496B04
:1004B000764AD26B881800EBD0714910734A5164A8
:1004C0007349896B724A126C881800EBD07149101D
:1004D0006F4A916400206D494863A020C8630020E2
:1004E00011468863C82008643FE700B52DED028BF4
:1004F000A3B020211BA808F0E2FE202113A808F0D9
:10050000DEFE20210BA808F0DAFE202103A808F067
:10051000D6FE0121624802F0FEF801287DD14B4849
:100520000068401C002879D1584890ED110AB8EEB7
:10053000C00A5C48D0ED000A30EEC00A534880ED96
:10054000020A534890ED120AB8EEC00A5648D0EDA0
:10055000000A30EEC00A4E4880ED020A4B48D0ED4A
:10056000060A90ED021A444890ED000AB8EEC00A5F
:1005700000EE810A4548D0ED070A90ED051A00EE1D
:10058000810AD0ED020A90ED031A70EEC10A90EDD7
:10059000081A01EE200ABDEEC00A444880ED000AA8
:1005A0003B48D0ED060A90ED021A354890ED000A5E
:1005B000B8EEC00A00EE810A3548D0ED070A90ED8A
:1005C000051A00EE810AD0ED020A90ED031A70EED2
:1005D000C10A90ED081A01EE200ABDEEC00A3448A7
:1005E00080ED000A294890ED020A80ED030A2848B0
:1005F00090ED020A80ED030A244890ED050AD0ED43
:10060000020A30EE200A80ED050A214890ED050A25
:10061000D0ED020A30EE200A01E002E15BE080ED5D
:10062000050A2348006840F6C411884202DD0846E6
:100630001F4908601E480068B0F5FA7F03DA4FF4DE
:10064000FA701B4908601948006833E00000002078
:100650004E0000204F5632363430204552520000B2
:100660004F5632363430204F4B00000060000020DF
:10067000C0FB0020256400000800002000080040A6
:100680000C000020000020426F12833A60FA002024
:10069000ACFA0020060000200020006C04000020BE
:1006A000000400401000002014000020180000206A
:1006B0001C00002040F6C411884202DD08465D4956
:1006C00008605C480068B0F5FA7F0CDA4FF4FA7005
:1006D0005849086007E0584800685649086057487C
:1006E00000685749086053480168564801F049FDC1
:1006F00053480168534801F046FD534890ED070AFE
:1007000010EE101A08460AF00DF941EC180B8DEDA9
:10071000008B4D484DA1426C0BA808F0ADFC514830
:1007200051A1826C03A808F0A7FC474890ED060A87
:1007300010EE101A08460AF0F5F841EC180B8DED92
:10074000008B3D4803683B4849A102681BA808F09C
:1007500093FC3D4890ED080A10EE101A08460AF086
:10076000E1F841EC180B8DED008B344803683448F8
:1007700045A1026813A808F07FFC49A010210B4690
:10078000F022CDE90010DC210A2007F044FC44A04F
:1007900010210B46F022CDE90010FA210A2007F0C3
:1007A0003AFC1BA810210B46F022CDE90010DC21F9
:1007B0000A2007F030FC13A810210B46F022CDE9E7
:1007C0000010FA210A2007F026FC35A010210B4664
:1007D000F022CDE900104FF487710A2007F01BFCCE
:1007E0002FA010210B46F022CDE900104FF4967196
:1007F0000A2007F010FC0BA810210B46F022CDE9CF
:1008000000104FF487710A2007F005FC03A810219F
:100810000B46F022CDE900104FF496710A2007F044
:10082000FAFB0121244801F087FF23B0BDEC028BC5
:1008300000BD000018000020080000200C0000206F
:100840001C0000200008004060FA0020625F583A57
:10085000202564202020202020204B693A20252EAE
:1008600032660000ACFA0020625F593A202564002D
:10087000505F583A2025642C2025642C20204B7092
:100880003A20252E32660000505F593A2025642C0C
:100890002025642C20204B643A20252E326600004F
:1008A0002020202020202020202020202020202048
:1008B000202020200000000000040040704700BFFE
:1008C000FEE700BFFEE700BFFEE700BFFEE77047A0
:1008D00070477047704700000CB5002001900090F1
:1008E0007648006840F480307449086000BF73485F
:1008F000006800F4003000900198401C01900098BE
:1009000018B90198B0F5A04FF1D16C48006800F417
:10091000003010B10120009001E00020009000980C
:10092000012846D165484030006840F08050634956
:10093000403108606248006840F440406049086007
:100940005E48083000685D49083108600846006864
:1009500040F4004008600846006840F4A050086079
:100960005848091F0860081F006840F08070091F80
:10097000086000BF5148006800F000700028F9D0FE
:1009800040F20570504908604C480830006820F07B
:1009900003004A49083108600846006840F0020038
:1009A000086000BF45480830006800F00C000828C7
:1009B000F8D10CBD10B54548006840F470004349BB
:1009C00008603E48006840F001003C490860002093
:1009D0003A4908310860394800683D4908403749BC
:1009E00008603C48091D0860081F006820F480204A
:1009F000091F0860002031490C310860FFF76CFFC7
:100A00004FF0006031498039086010BD70B500209A
:100A10000022022300240221284D08352D6805F00C
:100A20000C0020B1042806D0082834D107E02A4D54
:100A30002A4E356033E02A4D284E35602FE01F4D99
:100A40002D1D2D68C5F380541C4D2D1D2D6805F0FE
:100A50003F0154B1224DB5FBF1F5184E361D3668F5
:100A6000C6F3881605FB06F209E01B4DB5FBF1F550
:100A7000124E361D3668C6F3881605FB06F20F4D7A
:100A80002D1D2D68C5F301456D1C6B00B2FBF3F500
:100A9000124E356003E0104D104E356000BF00BFB0
:100AA000064D08352D68C5F303150E4E705D0B4DD0
:100AB0002D68C540094E356070BD00000038024009
:100AC0000070004008544007003C024088ED00E000
:100AD000FFFFF6FE103000240024F4002000002068
:100AE00000127A0024000020094880470948004786
:100AF000FEE7FEE7FEE7FEE7FEE7FEE7FEE7FEE7CE
:100B0000FEE7FEE704480549054A064B704700002A
:100B1000B50900088901000850FC0020500201209E
:100B200050FE002050FE002032490143324A11603D
:100B3000704770B5002100230F22C4781CB32E4CDF
:100B4000246804F4E064C4F5E064C4F30721C1F14F
:100B50000404E3B20A4144789C40E1B28478144032
:100B600021430C07210E254C05786155047804F0CB
:100B70001F050124AC4005786D11AD0005F1E0259D
:100B8000C5F8004109E0047804F01F050124AC40D9
:100B90001B4D0678761145F8264070BD194A0A406B
:100BA0000243154B1B1F1A60704739B1124A121DC0
:100BB00012680243104B1B1D1A6006E00E4A121DFC
:100BC000126882430C4B1B1D1A607047042808D121
:100BD0004FF0E021096941F004014FF0E02211617A
:100BE00007E04FF0E021096921F004014FF0E02215
:100BF000116170470000FA050CED00E000E400E030
:100C000080E100E080FFFF1F002061490860C860AC
:100C10001F20486100208861C861086248627047EF
:100C200000215B4A126844F201039A43584B1A6050
:100C30001A46116840F6F2729143028843881A43BB
:100C400083881A43C3881A4303891A4343891A4382
:100C500083891A4311434E4A116070470021018075
:100C600041808180C18001814181818170474188BB
:100C7000028841EA0241464A1162C188828841EAFB
:100C80000241434A5162704730B14149096841F01D
:100C900004013F4A116005E03D49096821F0040163
:100CA0003B4A116070470178427841EA022182781C
:100CB00041EA0241C27841EA0261354A91617047D6
:100CC00030B13349096841F00801314A116005E04B
:100CD0002F49096821F008012D4A1160704730B191
:100CE0002B49096841F48041294A116005E02849EF
:100CF000096821F48041264A1160704730B12449C7
:100D0000096841F00101224A116005E020490968A3
:100D100021F001011E4A116070471D48806A70472A
:100D200029B11B4AD2680243194BDA6006E0184A1F
:100D3000D268C3439BB21A40154BDA60704710B5B6
:100D40000146002000230A1312B9114CA36806E0E3
:100D5000022A02D10E4C636801E00D4C236903EABC
:100D600001040CB1012000E0002010BD08494861D9
:100D70007047014600200022054B1B6903EA01026F
:100D80000AB1012000E00020704701494861704726
:100D90000000055030B943F2DB028100A1F1C041EF
:100DA0000A6005E043F2D2028100A1F1C0410A606D
:100DB0006FF07042411C8900A1F1C0410A608100BE
:100DC000A1F1C041C1F804217047D0E901121143DB
:100DD000C268114302691143426911438269114398
:100DE000C2691143026A1143426A1143826A114384
:100DF000C26A1143026B114302689200A2F1C04221
:100E00001160816808290BD101688900A1F1C041F6
:100E1000096841F0400201688900A1F1C0410A60FF
:100E2000416B0968426B526841EA0211426B926859
:100E300041EA0221426B928941EA0241426B128AE5
:100E400041EA0251426B127D41EA0261426B9269B2
:100E500011430268521C9200A2F1C0421160C16AA3
:100E6000B1F5804F1BD1816B0968826B526841EAF2
:100E70000211826B926841EA0221826B128A41EA76
:100E80000251826B127D41EA0261826B92691143C9
:100E900002689200A2F1C042C2F8041107E06FF0AC
:100EA000704201688900A1F1C041C1F80421704776
:100EB000002101600221416000218160C160016167
:100EC00041618161C16101624FF480514162490019
:100ED00081620021C1620163F84941638163704707
:100EE00051B18200A2F1C042126842F001038200B7
:100EF000A2F1C042136009E08200A2F1C042126870
:100F0000EF4B1A408300A3F1C0431A6070471028CA
:100F10000AD118214FF020421166402151664FF04E
:100F2000FC319166D16610E01821E64A116040213B
:100F30004FF02042C2F884104FF0FC31E14A0832F1
:100F400011604FF02042C2F88C10704730B500217C
:100F500000220023446844F0080485682C43C568D7
:100F60002C4305692C43456944EA4524856944EAD4
:100F70004531C4692468C5696D6844EA0524C569BA
:100F80002D8944EA0544C5692D7B44EA0562046A5B
:100F90002468056A6D6844EA0524056A2D8944EAD7
:100FA0000544056A2D7B44EA05630468102C05D1CD
:100FB0004FF020442166A266E36608E0C14C216040
:100FC0004FF02044C4F88820BE4C0C34236030BD60
:100FD00010210160002141608160C16001614161B7
:100FE0008161FC21C2691160C2695160C26991606E
:100FF000C269D160026A1160026A5160026A91603E
:10100000026AD160704799B1102808D14FF0204290
:10101000126E42F004024FF020431A661DE0A94A06
:10102000126842F004024FF02043C3F8802014E01D
:10103000102809D14FF02042126EA14BDB1E1A403E
:101040004FF020431A6608E09E4A12689C4BDB1E54
:101050001A404FF02043C3F88020704799B1102800
:1010600008D14FF02042126E42F040024FF0204370
:101070001A661DE0934A126842F040024FF0204386
:10108000C3F8802014E0102809D14FF02042126EDE
:101090008B4B3F3B1A404FF020431A6608E0894AC9
:1010A0001268874B3F3B1A404FF02043C3F8802023
:1010B000704701460020102903D14FF02042506FA5
:1010C00002E0804A14321068704718207D492031B0
:1010D000086000200906C1F8A4004FF0FC307949EF
:1010E00028310860091D0860091D08607047016803
:1010F00041F01001426841EA4221826841EA4231EE
:10110000704A20321160C1680968C268526841EAB9
:101110000221C268128941EA0241C268127B41EA97
:101120000261684A283211600169096802695268DF
:1011300041EA02210269128941EA02410269127BF5
:1011400041EA02615F4A2C321160416909684269D3
:10115000526841EA02214269128941EA0241426928
:10116000127B41EA02614FF02042C2F8B010704792
:101170000021016041608160FC21C2681160C26889
:101180005160C2689160C268D160026911600269F1
:101190005160026991600269D160426911604269DF
:1011A0005160426991604269D160704748B14549D8
:1011B0002031096841F004014FF02042C2F8A0102C
:1011C00009E04049203109683D4AD21E11404FF0E4
:1011D0002042C2F8A010704710B5F2B1102807D114
:1011E0004FF020435B6E0B434FF02044636632E0C8
:1011F000B0F5807F08D1334B1B1D1B680B434FF0AC
:101200002044C4F8843026E02E4B24331B680B4363
:101210004FF02044C4F8A4301DE0102807D14FF04F
:1012200020435B6E8B434FF02044636613E0B0F5C0
:10123000807F08D1234B1B1D1B688B434FF020443C
:10124000C4F8843007E01F4B24331B688B434FF0F6
:101250002044C4F8A43010BD10B50246002000237D
:10126000102A03D14FF02044636E09E0B2F5807F6D
:1012700003D1144C241D236802E0124C243423684B
:1012800003EA01040CB1012000E0002010BD102889
:1012900007D14FF02042526E8A434FF020435A66E6
:1012A00019E0B0F5807F0FD1064A121D12688A43FB
:1012B0004FF02043C3F884200DE0000020AA00086E
:1012C000FEFF0F00800000A0234A12688A434FF0FF
:1012D0002043C3F8A420704770B5024600200023C5
:1012E00000240025102A03D14FF02046736E08E039
:1012F000B2F5807F03D1184E203E336801E0164ED0
:10130000336803EA010403EAD10514B10DB10120E9
:1013100000E0002070BD102808D14FF02042526E2E
:1013200022EAD1024FF020435A6614E0B0F5807FE4
:1013300009D1094A203A126822EAD1024FF020432B
:10134000C3F8842007E0044A126822EAD1024FF071
:101350002043C3F8A4207047A40000A010B50446A1
:101360009848844208D10121084600F086FB0021FC
:10137000012000F082FB76E09348844208D10121ED
:10138000022000F07AFB0021022000F076FB6AE0E8
:101390008E48844208D10121042000F06EFB002118
:1013A000042000F06AFB5EE08948844208D10121F4
:1013B000082000F062FB0021082000F05EFB52E0F4
:1013C0008448844208D10121102000F056FB0021FE
:1013D000102000F052FB46E07F48844208D10121F2
:1013E000202000F04AFB0021202000F046FB3AE0DC
:1013F0007A48844208D10121402000F03EFB0021C0
:10140000402000F03AFB2EE07548844208D10121CB
:10141000802000F032FB0021802000F02EFB22E033
:101420007048844208D10121801500F026FB00217C
:10143000A01500F022FB16E06B48844208D1012180
:10144000401500F01AFB0021601500F016FB0AE0C1
:101450006648844207D10121001500F00EFB0021EF
:10146000201500F00AFB10BDF0B50A46002100234C
:10147000002400BF3DE0012505FA01F3156805EAE7
:1014800003049C4234D105684F000326BE40B54397
:10149000056015794E00B54006683543056015793D
:1014A000012D02D01579022D16D185684F00032633
:1014B000BE40B543856055794E00B54086683543DA
:1014C0008560456801268E40B5434560456896793C
:1014D0008E40B6B235434560C5684F000326BE4016
:1014E000B543C560D5794E00B540C6683543C56083
:1014F000491C1029BFD3F0BD4FF6FF7101600021D8
:10150000017141718171C171704708B54FF480322A
:101510000092009A0A430092009AC261C161009A47
:10152000C261C2690092C269009208BD02460020F1
:1015300013690B400BB1012000E000207047014609
:10154000086980B270470246002053690B400BB116
:10155000012000E0002070470146486980B27047D2
:1015600001837047418370470AB1018300E04183E2
:1015700070474161704742694A4042617047F0B527
:10158000002300244D07ED0E02FA05F3CE1000F102
:10159000200555F826504E07F70E0F26BE40B543DE
:1015A000CF1000F1200646F82750CE1000F120059C
:1015B00055F8265045EA0304CE1000F1200545F801
:1015C0002640F0BD00000240000402400008024036
:1015D000000C0240001002400014024000180240BB
:1015E000001C02400020024000240240002802406B
:1015F000F948006840F00100F74908600020F6490A
:1016000008310860F4480068F4490840F24908606D
:10161000F348091D0860F348EF4984310860F04839
:101620001038091D0860EC48006820F48020EA4961
:1016300008600020E8490C310860E7498C310860F7
:1016400070470021E44A921C1170114608707047DF
:1016500010B501460022002300204A11012A02D1C0
:10166000DD4C236808E0022A03D1DB4C7034236888
:1016700002E0D94C7434236801F01F020124944025
:101680001C400CB1012000E0002010BD38B5002046
:1016900000900024002500BF3120FFF7D9FF054648
:1016A0000098401C00900098B0F5A04F01D0002D8C
:1016B000F2D03120FFF7CCFF08B1012400E0002474
:1016C000204638BD01460020C34A106820F0F800CB
:1016D00040EAC10010607047C349086070470021AC
:1016E000BD4A703211701170012802D004280AD14D
:1016F00004E00121B84A7032117005E00521B64AB4
:101700007032117000E000BF00BF7047B749086039
:10171000704770B5049C41EA82150126C6EB53065A
:1017200045EA0645054345EA0465AB4E361D35607E
:1017300070BDAD4908667047820142EA0172A64B4E
:1017400084331A607047A8498866704710B58301D2
:1017500043EA016343EA02739F4C8834236010BD5F
:10176000A14908677047A049C86470470246002035
:10177000994B0833186820F0EC6042EA01031843E3
:10178000954B08331860704702460020924B08338F
:10179000186820F0784042EA010318438E4B083362
:1017A00018607047014600208B4A0832106820F00C
:1017B000030008431060704787480830006800F055
:1017C0000C00704701460020834A0832106820F060
:1017D000F000084310607047014600207E4A08323E
:1017E000106820F4E0500843106070470146002064
:1017F000794A0832106820F4604040EAC100106065
:101800007047F0B5002100220024022500260223A3
:10181000714F08373F6807F00C0121B1042905D04A
:10182000082937D105E0724F076036E0714F076035
:1018300033E0694F3F1D3F68C7F38056664F3F1D39
:101840003F6807F03F036EB16A4FB7FBF3F7DFF86D
:1018500088C10CF1040CDCF800C0CCF3881C07FB39
:101860000CF40CE0624FB7FBF3F7DFF86CC10CF13E
:10187000040CDCF800C0CCF3881C07FB0CF4564FBA
:101880003F1D3F68C7F301477F1C7D00B4FBF5F7A0
:10189000076002E0564F076000BF00BF4E4F083799
:1018A0003F6807F0F0010909534F7A5C0768D74099
:1018B0004760494F08373F6807F4E051890A4E4FA7
:1018C0007A5C4768D7408760434F08373F6807F422
:1018D0006041490B484F7A5C4768D740C760F0BD0C
:1018E000002100F44072B2F5407F0AD13A4A083232
:1018F000116821F4F811414A02401143364A083276
:101900001160354A70321268C0F30B031A43324B30
:1019100070331A607047354944390860704733495D
:10192000403908607047364908607047014600201A
:10193000294A8C32106820F01F004A1E1043264AA4
:101940008C321060704701460020234A8C321068A8
:1019500020F4F8504A1E40EA02201F4A8C321060E0
:101960007047014600201C4A8C32106820F4401059
:1019700008431060704701460020174A8C321068F7
:1019800020F4400008431060704701460020124ACE
:101990008C32106820F440300843106070471949B9
:1019A0000860704739B10C4A3032126802430A4B62
:1019B00030331A6006E0084A303212688243064B20
:1019C00030331A607047F9B1034A34321268024367
:1019D000014B34331A601CE000380240FFFFF6EA86
:1019E000103000240030002000004742800E4742A3
:1019F0000024F40000127A0034000020FFFCFF0FE6
:101A00005C014742E01147428F4A126882438E4B85
:101A10001A60704739B18C4A121D126802438A4B12
:101A20001B1D1A6006E0884A121D12688243864B0D
:101A30001B1D1A60704739B1834A0C321268024389
:101A4000814B0C331A6006E07F4A0C3212688243E5
:101A50007D4B0C331A60704739B17B4A10321268E3
:101A60000243794B10331A6006E0774A103212684D
:101A70008243754B10331A60704739B1724A243A69
:101A800012680243704B243B1A6006E06E4A243A07
:101A9000126882436C4B243B1A60704739B16A4A22
:101AA000203A12680243684B203B1A6006E0664AFF
:101AB000203A12688243644B203B1A60704739B168
:101AC000614A1C3A126802435F4B1C3B1A6006E0F5
:101AD0005D4A1C3A126882435B4B1C3B1A6070479C
:101AE00039B1594A143A12680243574B143B1A60F1
:101AF00006E0554A143A12688243534B143B1A606D
:101B0000704739B1504A103A126802434E4B103BAD
:101B10001A6006E04C4A103A126882434A4B103B66
:101B20001A60704739B1484A1C3212680243464B6A
:101B30001C331A6006E0444A1C3212688243424B4E
:101B40001C331A60704739B13F4A20321268024391
:101B50003D4B20331A6006E03B4A20321268824334
:101B6000394B20331A60704739B1374A2432126832
:101B70000243354B24331A6006E0334A243212689C
:101B80008243314B24331A60704739B12E4A2C32CC
:101B9000126802432C4B2C331A6006E02A4A2C327E
:101BA00012688243284B2C331A60704739B1264A99
:101BB000303212680243244B30331A6006E0224A66
:101BC000303212688243204B30331A60704701284C
:101BD00008D11D493C31096841F008011A4A3C32DC
:101BE000116007E018493C31096821F00801164AE4
:101BF0003C321160704739B1134A273A12780243D8
:101C0000114B273B1A7006E00F4A273A127882439D
:101C10000D4B273B1A7070470B484030006840F06E
:101C20008070094940310860704701460020064A2B
:101C3000283A12680A400AB1012000E000207047EB
:101C400001492639087070473438024010B50446FF
:101C5000FE48844208D101210846FFF752FF0021C7
:101C60000120FFF74EFF9DE0B4F1804F08D1012124
:101C70000846FFF735FF00210120FFF731FF91E013
:101C8000F348844208D101210220FFF729FF0021F7
:101C90000220FFF725FF85E0EE48844208D10121AC
:101CA0000420FFF71DFF00210420FFF719FF79E052
:101CB000E948844208D101210820FFF711FF0021E3
:101CC0000820FFF70DFF6DE0E448844208D10121B0
:101CD0001020FFF705FF00211020FFF701FF61E052
:101CE000DF48844208D101212020FFF7F9FE0021BE
:101CF0002020FFF7F5FE55E0DA48844208D10121A3
:101D00000220FFF7FEFE00210220FFF7FAFE49E065
:101D1000D548844209D101210804FFF7F2FE0021D1
:101D20004FF48030FFF7EDFE3CE0D048844209D10B
:101D300001214804FFF7E5FE00214FF40030FFF7D2
:101D4000E0FE2FE0CA48844209D101218804FFF750
:101D5000D8FE00214FF48020FFF7D3FE22E0C548D3
:101D6000844208D101214020FFF7BAFE0021402023
:101D7000FFF7B6FE16E0C048844208D1012180205A
:101D8000FFF7AEFE00218020FFF7AAFE0AE0BB4865
:101D9000844207D101218015FFF7A2FE0021A01582
:101DA000FFF79EFE10BD00220288A84B98420ED07D
:101DB000AC4B98420BD0B0F1804F08D0A44B984266
:101DC00005D0A44B984202D0A34B984204D14FF6C1
:101DD0008F731A404B881A43A04B984207D0A04BF0
:101DE000984204D04FF6FF431A400B891A430280F1
:101DF0004B68C3620B880385944B984202D0994B81
:101E0000984201D18B7A03860123838270474FF079
:101E1000FF31416000210180018141808172704762
:101E20000185828270470A46002101884FF68F7330
:101E3000194011430180704741627047C162704789
:101E40000146486A70470146088D704721B10288F3
:101E500042F00202028004E002884FF6FD731A404D
:101E60000280704721B1028842F00402028004E03F
:101E700002884FF6FB731A400280704721B1028836
:101E800042F08002028004E002884FF67F731A401D
:101E90000280704702884FF6F7731A40028002886A
:101EA0000A430280704702884FF6FF431A400280BF
:101EB00002880A430280704721B1028842F0010281
:101EC000028004E002884FF6FE731A4002807047D9
:101ED00070B5002400220023058C4FF6FE763540B5
:101EE0000584028C8388048B4FF68F752C40B51EB9
:101EF0002C400D882C43751E2A408D892A434D881D
:101F00002A43524DA84202D0564DA84213D14FF653
:101F1000F7752A40CD892A434FF6FB752A408D88F4
:101F20002A434FF6FF652B404FF6FF552B400D8A95
:101F30002B434D8A2B43838004838D684563028441
:101F400070BD70B5002400220023058C4FF6EF769B
:101F500035400584028C8388048B48F6FF752C403D
:101F60004FF6FF452C400D884FF6FF7606EA052513
:101F70002C434FF6DF752A408D8906EA05152A4362
:101F80004D8806EA05152A43304DA84202D0354D4A
:101F9000A8421DD14FF67F752A40CD894FF6FF76B6
:101FA00006EA05152A434FF6BF752A408D8806EAD2
:101FB00005152A434FF6FF352B404FF2FF752B4096
:101FC0000D8A06EA85052B434D8A06EA85052B43D3
:101FD000838004838D688563028470BD70B500249E
:101FE00000220023058C4FF6FF6635400584028CE5
:101FF0008388848B4FF68F752C404FF6FC752C40F0
:102000000D882C434FF6FF552A408D894FF6FF76F9
:1020100006EA05252A434D8806EA05252A430B4D85
:10202000A84202D00F4DA84238D14FF2FF752A4086
:10203000CD894FF6FF7606EA05252A434FF6FF3590
:102040002A408D8806EA05252A4319E00000014050
:102050000004004000080040000C00400010004058
:1020600000140040000401400040014000440140D1
:102070000048014000180040001C004000200040C3
:102080004EF6FF752B404DF6FF752B400D8A06EA84
:1020900005152B434D8A06EA05152B43838084835F
:1020A0008D68C563028470BD70B5002200230024D2
:1020B000058C4EF6FF7635400584038C8488828B30
:1020C00048F6FF752A404FF6FF452A400D884FF627
:1020D000FF7606EA05252A434DF6FF752B408D89CC
:1020E00006EA05352B434D8806EA05352B43FE4DA0
:1020F000A84202D0FD4DA84208D14BF6FF752C40F6
:102100000D8A4FF6FF7606EA85152C43848082837C
:102110008D680564038470BD002101804180818049
:1021200081608181C18101824182704770B503461F
:10213000002000241846183001258D40ACB21D8CBB
:10214000A5431D8409B108290AD100EB6100056887
:102150004FF68F76354005600568154305600FE042
:102160000D1FC5F34E052844056848F6FF76354037
:10217000056005684FF6FF7606EA022635430560DE
:1021800070BD4163704781637047C16370470164EC
:1021900070470A460021018B4FF68F731940114397
:1021A000018370470A460021018B48F6FF731940EE
:1021B0004FF6FF7303EA02231943018370470A466F
:1021C0000021818B4FF68F73194011438183704733
:1021D0000A460021818B48F6FF7319404FF6FF73C2
:1021E00003EA02231943818370470A460021018BC9
:1021F0004FF6F77319401143018370470A460021D7
:10220000018B4FF2FF7319404FF6FF7303EA02236D
:102210001943018370470A460021818B4FF6F773FB
:1022200019401143818370470A460021818B4FF288
:10223000FF7319404FF6FF7303EA022319438183AA
:1022400070470A460021018B4FF6FB73194011437A
:10225000018370470A460021018B4FF6FF33194076
:102260004FF6FF7303EA02231943018370470A46BE
:102270000021818B4FF6FB73194011438183704716
:102280000A460021818B4FF6FF3319404FF6FF734A
:1022900003EA02231943818370470A460021018B18
:1022A0004FF67F7319401143018370470A4600219E
:1022B000018BC1F30E014FF6FF7303EA02231943AA
:1022C000018370470A460021818B4FF67F731940C6
:1022D0001143818370470A460021818BC1F30E01AF
:1022E0004FF6FF7303EA02231943818370470A46BE
:1022F0000021018C4FF6FD73194011430184704792
:102300000A460021018C4FF6F773194011430184EE
:1023100070470A460021018C4FF6DF7319404FF6D3
:10232000FF7303EA02131943018470470A46002130
:10233000018C4FF67F7319404FF6FF7303EA0213C7
:102340001943018470470A460021018C4FF6FF5360
:1023500019404FF6FF7303EA0223194301847047C3
:102360000A460021018C4FF2FF7319404FF6FF73AC
:1023700003EA02231943018470470A460021018CB5
:102380004DF6FF7319404FF6FF7303EA023319430A
:102390000184704730B5002301248C40A3B2048C23
:1023A0009C430484048C02FA01F5ADB22C430484EE
:1023B00030BD30B5002304248C40A3B2048C9C4370
:1023C0000484048C02FA01F5ADB22C43048430BDC0
:1023D000828B4FF2FF331A408283828B4FF6FF735A
:1023E00003EA01231A4382837047F0B50C46154671
:1023F000002100220026078C4EF6FF7C07EA0C071E
:102400000784818B028C4FF6FF7707EA043640F68B
:10241000FF4739404FF6FF7707EA052739434FF664
:10242000FF7707EA0337394345F6FF773A4046F42A
:1024300080573A4381830284F0BD828B4FF6F37359
:102440001A408283828B0A4382837047F0B50C4620
:102450001546002100220026078C4FF6FF6C07EA84
:102460000C070784818B028C4FF6FF7707EA04265E
:102470004FF60C7739404FF6FF7707EA03172F43E3
:1024800039434FF2FF573A4046F480773A4381830D
:102490000284F0BD028B4FF2FF331A400283028B9D
:1024A0004FF6FF7303EA01231A4302837047F0B526
:1024B0000C461546002100220026078C4FF6EF7CC3
:1024C00007EA0C070784018B028C4FF6FF7707EAB7
:1024D000041640F6FF4739404FF6FF7707EA033707
:1024E00039434FF6FF7703E000000140000401404C
:1024F00007EA052739434FF65F773A4046F0100761
:102500003A4301830284F0BD028B4FF6F3731A4005
:102510000283028B0A4302837047F0B50C461546CE
:1025200000210022068C4FF6FE773E400684018B88
:10253000028C4FF60C7631407E1C06EA03162E43C1
:1025400031434FF6F576324044F0010632430183C1
:102550000284F0BD70B505460C46208850B9238929
:10256000A28861882846FFF7D8FFE1882846FFF750
:10257000CBFF25E0208804280AD12389A28861881E
:102580002846FFF794FFE1882846FFF783FF17E00E
:10259000208808280AD12389A28861882846FFF765
:1025A00055FFE1882846FFF748FF09E02389A28804
:1025B00061882846FFF719FFE1882846FFF708FFE2
:1025C00070BD002101804180012181800021C180F6
:1025D000018170472DE9F04105460C460026012790
:1025E000608808B9022600E00026A088012801D1F1
:1025F000022700E001272088A0B92389A2886188EA
:102600002846FFF78AFFE1882846FFF77DFF2389E8
:102610003A4631462846FFF74AFFE1882846FFF749
:1026200039FF13E02389A28861882846FFF73FFF1E
:10263000E1882846FFF72EFF23893A46314628468F
:10264000FFF76BFFE1882846FFF75EFFBDE8F081EA
:102650000146486B70470146886B70470146C86B5E
:1026600070470146086C70470A884B881A438B886C
:102670001A43CB881A430B891A434B891A438B8917
:102680001A43A0F8442070470021018041808180D6
:10269000C180018141818181704731B1B0F844200E
:1026A00042F40042A0F8442005E0B0F84420C2F310
:1026B0000E02A0F84420704721B1828842F0040243
:1026C000828004E082884FF6FB731A408280704754
:1026D00021B1828842F00102828004E082884FF6B4
:1026E000FE731A40828070471AB183890B4383813D
:1026F00002E083898B438381704781827047024661
:102700000020138A0B400BB1012000E0002070472D
:10271000CA430282704730B50246002000230024DD
:10272000158A05EA0103958905EA010413B10CB184
:10273000012000E0002030BDCA430282704741EA18
:102740000203A0F8483070471AB183890B43838194
:1027500002E083898B438381704721B1828842F0F4
:102760000802828004E082884FF6F7731A40828064
:10277000704701894FF6F8721140018170470A468F
:10278000002101894FF68F73194011430181704771
:1027900030B504460D4629462046FFF7F0FF208954
:1027A00040F00700208130BD2DE9F04104460D4680
:1027B00016461F46602D06D13B4601223146204673
:1027C000FFF775FE05E03B46012231462046FFF744
:1027D000A4FE29462046FFF7D2FF208940F00700DB
:1027E0002081BDE8F08130B50C4600210189C9B2D5
:1027F0004FF6FF7505EA032515432543294301815B
:1028000030BD2DE9F04105460E4617469846002496
:1028100043463A4631462846FFF7E5FF2C894FF6F6
:10282000F870044044F007044FF68F70044044F001
:1028300070042C81BDE8F081F0B504460D461646C3
:102840001F463B46324629462046FFF7CCFF2089EB
:1028500040F480402081F0BD82884FF68F731A408B
:10286000828082880A438280704702894FF6F8731B
:102870001A40028102890A430281704702894FF699
:102880007F731A40028102890A4302817047F0B5C2
:102890000C4615461E460021002200230189028BAA
:1028A000038C4FF6F877394021434FF6FC473A4006
:1028B00040F201173A434FF6DD773B404FF6FF7782
:1028C00007EA06172F433B43018102830384F0BDCF
:1028D00021B1828842F08002828004E082884FF633
:1028E0007F731A4082807047A0F850107047000034
:1028F00010B50446FA48844208D101211020FFF7A0
:1029000000F900211020FFF7FCF857E0F548844259
:1029100009D101214804FFF7E3F800214FF400300A
:10292000FFF7DEF84AE0F048844209D1012188042B
:10293000FFF7D6F800214FF48020FFF7D1F83DE0F3
:10294000EA48844209D10121C804FFF7C9F80021EF
:102950004FF40020FFF7C4F830E0E548844209D185
:1029600001210805FFF7BCF800214FF48010FFF7A4
:10297000B7F823E0DF48844208D101212020FFF787
:10298000C0F800212020FFF7BCF817E0DA488442A5
:1029900009D101218807FFF7A3F800214FF08040FB
:1029A000FFF79EF80AE0D548844207D1012140058F
:1029B000FFF796F800216005FFF792F810BD2DE9AA
:1029C000FF4705460E460024A14600BFA046B08939
:1029D00000B100BF2C8A24F44054F08804432C82B8
:1029E000AC8941F20C608443B08831890843718915
:1029F00008430443AC81AC8A24F44074B089044396
:102A0000AC826846FEF7FDFEB548854202D0B94863
:102A1000854202D1DDF80C9001E0DDF80890A8892C
:102A200000F4004040B109EBC90000EB0910316827
:102A30004900B0FBF1F707E009EBC90000EB091012
:102A400031688900B0FBF1F76420B7FBF0F00401B6
:102A50002009642101FB1078A88900F4004040B1EE
:102A6000322000EBC800B0FBF1F000F00700044397
:102A700008E0322000EB08106421B0FBF1F000F018
:102A80000F0004432C81BDE8FF874FF4165101600D
:102A900000218180C18001810C214181002181813F
:102AA000704710B502460020108A20F470600B8831
:102AB0004C8823438C882343CC88234318431082BB
:102AC00010BD0021018041808180C180704721B10B
:102AD000828942F40052828104E082894DF6FF73BC
:102AE0001A4082817047028B02F47F420283028B7C
:102AF0000A430283704721B1828942F400428281F5
:102B000003E08289C2F30E028281704721B1828A7A
:102B100042F40062828204E0828A4FF2FF731A401C
:102B200082827047C1F3080282807047014688881C
:102B3000C0F308007047028A4FF6F0731A40028211
:102B4000028A0A430282704721B1828942F002025E
:102B5000828104E082894FF6FD731A4082817047BA
:102B600082894FF2FF731A40828182890A438281EF
:102B70007047028A4FF6DF731A400282028A0A43C4
:102B80000282704721B1028A42F48042028204E04C
:102B9000028A4BF6FF731A4002827047818941F026
:102BA00001018181704721B1828A42F0080282824C
:102BB00004E0828A4FF6F7731A4082827047028BD4
:102BC000D2B20283028B42EA01220283704721B112
:102BD000828A42F02002828204E0828A4FF6DF730A
:102BE0001A408282704721B1828A42F010028282AA
:102BF00004E0828A4FF6EF731A4082827047828A1D
:102C00004FF6FB731A408282828A0A43828270479F
:102C100021B1828A42F00202828204E0828A4FF667
:102C2000FD731A40828270471AB1838A0B438382F4
:102C300002E0838A8B4383827047F0B50346002409
:102C400000260025002040F66A17B94200D100BFD7
:102C50001846C1F3421401F01F06012707FA06F5D2
:102C6000012C01D10C3004E0022C01D1103000E025
:102C700014301AB107682F43076002E00768AF43BA
:102C80000760F0BD02460020B1F5007F00D100BF13
:102C900013880B400BB1012000E00020704701F4C5
:102CA0000072B2F5007F00D100BFCA4302807047B6
:102CB00070B50246002400230025002040F66A1665
:102CC000B14200D100BFC1F3421501F01F0301263C
:102CD00006FA03F3012D13D19689334017E0000063
:102CE000001001400044004000480040004C0040FB
:102CF000005000400014014000780040007C00407B
:102D0000022D02D1168A334001E0968A33400C121C
:102D1000012606FA04F41688344013B10CB10120E0
:102D200000E0002070BD10B50022002340F66A14B8
:102D3000A14200D100BF0A1201249440A3B2DC4397
:102D4000048010BD016821F00101016000210160D3
:102D500041608160C160016121214161DB4988429C
:102D600004D13D21D94A103A91608CE0D7491831FD
:102D7000884205D14FF47461D44A103A916082E0E0
:102D8000D2493031884205D14FF47411CF4A103AFC
:102D9000916078E0CD494831884205D14FF07461A7
:102DA000CA4A103A91606EE0C8496031884204D145
:102DB000C749C64A103AD16065E0C44978318842B3
:102DC00004D1C449C14A103AD1605CE0BF49903196
:102DD000884204D1C049BD4A103AD16053E0BB4992
:102DE000A831884205D14FF03D51B84A103AD16020
:102DF00049E0BA49884204D13D21B84A083A1160F5
:102E000041E0B6491831884205D14FF47461B34AA4
:102E1000083A116037E0B1493031884205D14FF4AA
:102E20007411AE4A083A11602DE0AC49483188422D
:102E300005D14FF07461A94A083A116023E0A7490F
:102E40006031884204D1A249A44A121F11601AE0DD
:102E5000A2497831884204D19E49A04A121F1160CC
:102E600011E09E499031884204D19B499B4A121F30
:102E7000116008E09949A831884204D14FF03D51D2
:102E8000964A121F1160704710B500220268944BD9
:102E90001A40CC680B6823434C6923438C69234355
:102EA000CC6923430C6A23434C6A23438C6A234333
:102EB0004C6B23438C6B23431A430260426922F01C
:102EC0000702D1E90B3423431A4342610B69436083
:102ED0004B6883608B68C36010BD00210160416056
:102EE0008160C160016141618161C16101624162D2
:102EF0008162C162016341638163704721B10268ED
:102F000042F00102026003E0026822F00102026066
:102F1000704721B1026842F40042026003E0026897
:102F200022F400420260704721B1026842F02002A0
:102F3000026003E0026822F02002026070474160F4
:102F400070470146486880B2704722B1036843F475
:102F50000023036003E0036823F40023036001619E
:102F6000704721B1026842F48022026003E00268E7
:102F700022F48022026070470AB1016100E0C16062
:102F80007047014600200A6802F400220AB10120BD
:102F900000E000207047014600200A6802F00102AC
:102FA0000AB1012000E000207047014600204A6974
:102FB00002F03800704730B503460A46002000246E
:102FC000464DAB4202D24149103901E04349103924
:102FD00002F000550DB14C6800E00C68414D2C40EA
:102FE00004EA02050DB1012000E0002030BD0246D8
:102FF0003A4B9A4202D23548103801E0374810382F
:1030000001F000531BB1374B0B40C36002E0354B5E
:103010000B408360704710B501F080034BB122B1C3
:10302000436943F08003436103E0436923F0800375
:10303000436180290BD02AB1036801F01E042343A9
:10304000036004E0036801F01E04A343036010BDA5
:1030500070B50246002000240025204EB24202D264
:103060001A4B103B01E01D4B103B1F4E0E4036B17A
:103070001E2606EAD124166806EA040502E056690F
:1030800006F0800501F000560EB15C6800E01C6897
:10309000144E344004EA010616B10DB1012000E0DF
:1030A000002070BD02460D4B9A4202D207481038EC
:1030B00001E00A48103801F000531BB1094B0B40E6
:1030C000C36002E0074B0B40836070471060024012
:1030D0003D000020400F002000003D201064024011
:1030E0003F801CF07D0F7D0F3C0F3C0F10B5044658
:1030F0006FF00400FDF76AFDE11704EB5171C1F3B5
:10310000C701394A11701046007800EB4001C1EB4D
:10311000C0104FF6FF7101EAC0003449088010BDAD
:103120000146314A12784A434FF0E0235A610022A7
:103130009A611A46126942F001021A6100BF4FF00B
:10314000E022106900F001021AB100F48032002A76
:10315000F5D04FF0E022126922F001024FF0E02397
:103160001A6100229A6170470146204A12884A4338
:103170004FF0E0235A6100229A611A46126942F028
:1031800001021A6100BF4FF0E022106900F0010255
:103190001AB100F48032002AF5D04FF0E022126913
:1031A00022F001024FF0E0231A6100229A61704779
:1031B00070B504464FF4077094FBF0F0C6B24FF4BC
:1031C000077094FBF0F100FB114085B205E04FF46D
:1031D0000770FFF7C9FF701EC6B2002EF7D115B1F8
:1031E0002846FFF7C1FF70BD4400002046000020C4
:1031F000014600BF704700BF4C4A128802F04002EF
:10320000002AF9D0C2B2494B9A80704710B588B0F5
:10321000044601210846FEF7C5FB01211020FEF7F8
:103220001BFC072209214248FEF7A9F907220A21BF
:103230003F48FEF7A4F94FF4C060069002208DF8D5
:103240001C008DF81D0000208DF81E0001208DF857
:103250001F0006A93648FEF707F902940020ADF8D2
:103260000C00ADF80E00ADF81000ADF814000C2005
:10327000ADF8120002A92D48FFF7A1FB01212B4850
:10328000FFF725FC012240F225512848FFF7D5FC25
:1032900025208DF8040003208DF805008DF8060028
:1032A00001208DF8070001A8FDF743FC08B010BD10
:1032B00010B540F225511D48FFF7FAFC10B31B482A
:1032C000FFF734FCC4B21B48008800F40040C8B9C2
:1032D0001848008800F4804060B10A2C03D0002018
:1032E0001449088020E01348008840F40040114948
:1032F000088019E00D2C06D10E48008840F480406B
:103300000C49088010E00B480088C0F30D000A4902
:103310000C5408480088401C06490880084600886C
:10332000C72801DD0020088010BD0000001001400A
:10333000000002404C000020F8FA002070B58AB06E
:10334000044654252D48B0FBF5F0B0FBF4F0461EC2
:1033500001210420FEF76FFB01210820FEF722FB6C
:1033600002220C212648FEF70AF902220D212448E8
:10337000FEF705F94FF44050089002208DF8240024
:1033800003208DF8250000208DF8260001208DF8FF
:10339000270008A91A48FEF767F8681E80B2ADF842
:1033A00014000020ADF816000696ADF81C0005A923
:1033B0001448FEF7F8FC7020ADF800000120ADF8CD
:1033C00002000220ADF80C0069460E48FEF780FDB1
:1033D00069460C48FEF7B5FD04210A48FEF705FFD3
:1033E00004210848FEF70AFF01210648FEF746FDC2
:1033F00001210448FEF760FD0AB070BD00BD010563
:10340000000C02400008004001B5BDF8000000902B
:10341000BDF80000F749088008BD01B5BDF80000FF
:103420000090BDF80000F349891C088008BD08B56C
:10343000F048801C00880090BDF8000008BDED4AEF
:103440001080921C1180704710B504462046FFF78B
:10345000DBFF0520FFF764FEFFF7E9FF10BDE6483C
:103460000089E44908807047E249891C0880704758
:1034700030B5014601F01F04C1F34513CA0AE50245
:1034800005EB43151544A8B230BD00BF0100A0F103
:103490000102D0B2FAD1704730B504460D46D64885
:1034A000808849F24131884205D0D348808845F26E
:1034B0001031884214D1D0494889FFF7A5FF201266
:1034C000FFF7ABFFE0B2FFF7A8FFCB498889FFF712
:1034D0009BFF2812FFF7A1FFE8B2FFF79EFFABE0CA
:1034E000C548808846F6040188421DD1C2488079CB
:1034F000012804D1C0480088401E001B84B2BE4988
:103500004889FFF781FF2012FFF787FFE0B2FFF73E
:1035100084FFB9498889FFF777FF2812FFF77DFFFD
:10352000E8B2FFF77AFF87E0B348808841F663117D
:10353000884247D1B0488079A8B9AF480088401E7A
:10354000001B84B2AC494889FFF75EFF0020FFF7FB
:1035500064FF0020FFF761FF2012FFF75EFFE0B27B
:10356000FFF75BFF16E0A4494889FFF74DFF2012E3
:10357000FFF753FFE0B2FFF750FF9F490988491E4C
:10358000C1F30F20FFF749FF9B490978491EC8B2D4
:10359000FFF743FF98498889FFF736FF2812FFF7A6
:1035A0003CFFE8B2FFF739FF93494988491EC1F350
:1035B0000F20FFF732FF90498978491EC8B2FFF704
:1035C0002CFF39E08C48808845F21051884220D188
:1035D00089494889FFF718FF2012FFF71EFF864927
:1035E0004989491C88B2FFF70FFFE0B2FFF715FFCA
:1035F00081498889FFF708FF2812FFF70EFF7E49EF
:103600008989491C88B2FFF7FFFEE8B2FFF705FF82
:1036100012E079488079012804D177480088401E5B
:10362000001B84B2744948892146FFF708FF72499C
:1036300088892946FFF703FF30BD2DE9F041054693
:103640000E4600240027A0466B480088A84203DDF0
:1036500069484088B04202DC0020BDE8F081314674
:103660002846FFF719FF6448808849F241318842B3
:1036700011D06148808846F6040188420BD05E482C
:10368000808845F21031884205D05B48808841F639
:103690006311884203D12E20FFF7B6FE0DE0564895
:1036A000808845F21051884204D14FF43850FFF71A
:1036B000ABFE02E02220FFF7A7FE4F48808849F2C8
:1036C0002031884202D10220FFF7DFFEFFF7AFFE74
:1036D00004464948808841F66311884201D120465A
:1036E000BBE70220FFF7D1FEFFF7A1FE04464248E8
:1036F000808849F2413188420BD03F48808845F2AA
:103700001031884205D03C48808845F210518842EB
:103710000AD10220FFF7B9FEFFF789FE8046E7B223
:103720004FF6FF7000EA07273348808849F22531B9
:10373000884216D03048808844F23551884210D0F3
:103740002D488088091F88420BD02B4880884BF277
:103750000551884205D0284880884CF2055188429E
:1037600001D1204679E72448808849F241318842D6
:103770000BD02148808845F21031884205D01E4880
:10378000808845F21051884207D1E012C002B91278
:1037900040EA411040EAE8205FE72046FFF768FE74
:1037A0005BE700B51448808849F24131884211D066
:1037B0001148808846F6040188420BD00E48808864
:1037C00045F21031884205D00B48808841F66311DC
:1037D000884203D12920FFF717FE14E006488088AD
:1037E00045F21051884209D14FF42450FFF70CFEE6
:1037F00009E00000FE1F006CC0FB002040F27311C6
:103800000720FFF71CFE00BD00B5FD48808849F287
:103810004131884211D0FA48808846F60401884236
:103820000BD0F748808845F21031884205D0F44823
:10383000808841F66311884203D12820FFF7E4FD18
:103840000EE0EF48808845F21051884204D14FF4D1
:103850002050FFF7D9FD03E000210720FFF7EFFD1F
:1038600000BDF0B5054600240027E5488079012811
:103870000BD1E348808846F60401884205D0E04831
:10388000808841F66311884208D1DD488079F0B91B
:10389000DB48808841F66311884218D1082D15D283
:1038A000DFE805F00406080A0C0E101206250DE0EC
:1038B00007250BE0042509E0052507E0012505E0C3
:1038C000002503E0032501E0022500BF00BFCC482E
:1038D000808849F24131884217D0C948808846F62D
:1038E0000401884211D0C648808845F210318842D0
:1038F0000BD0C348808845F21051884205D0C0489B
:10390000808841F6631188427ED1082D1CD2DFE801
:1039100005F00406090C0F12151800BF14E044F05E
:10392000800411E044F040040EE044F0C0040BE0D9
:1039300044F0200408E044F0600405E044F0A004F2
:1039400002E044F0E00400BF00BFAD48808845F2CB
:103950001051884202D14FF4585700E03627A8484A
:10396000808845F2103188420DD0A548808845F204
:103970001051884207D0A248808841F663118842DE
:1039800001D044F008049E48808846F6040188422D
:1039900001D144F0020421463846FFF750FD984813
:1039A000808841F6631188421DD004F0200068B180
:1039B0009348008892494988884214DA90480688DA
:1039C00040888F490880084646800CE08C48008873
:1039D0008B494988884206DD89480688408888499D
:1039E0000880084646808648808845F21051884203
:1039F00054D183494889FFF707FD0020FFF70DFDEB
:103A00007F494989491C00E077E088B2FFF7FCFC58
:103A10000020FFF702FD7A494989891C88B2FFF727
:103A2000F3FC77490988491EC1F30F20FFF7F5FC25
:103A300073494989C91C88B2FFF7E6FC70490978C7
:103A4000491EC8B2FFF7E9FC6D498889FFF7DCFC25
:103A50000020FFF7E2FC6A498989491C88B2FFF718
:103A6000D3FC0020FFF7D9FC65498989891C88B2FD
:103A7000FFF7CAFC62494988491EC1F30F20FFF7CE
:103A8000CCFC5F498989C91C88B2FFF7BDFC5C4941
:103A90008978491EC8B2FFF7C0FC55E058494889EB
:103AA000FFF7B2FC0020FFF7B8FC0020FFF7B5FCE1
:103AB00053490988491EC1F30F20FFF7AEFC504956
:103AC0000978491EC8B2FFF7A8FC4D498889FFF75D
:103AD0009BFC0020FFF7A1FC0020FFF79EFC48495B
:103AE0004988491EC1F30F20FFF797FC44498978A4
:103AF000491EC8B2FFF791FC26E0082D1CD2DFE872
:103B000005F004070A0D0F12151844F0300413E0F5
:103B100044F0100410E044F020040DE000BF0BE07E
:103B200044F0380408E044F0280405E044F01804A8
:103B300002E044F0080400BF00BF032744F48054AF
:103B400021463846FFF77BFCF0BD30B504460D46F4
:103B500029462046FFF7A0FCFFF781FC2948008892
:103B60002949088030BD70B504460D4616462448E4
:103B7000808849F24131884205D02148808845F249
:103B80001031884214D11E494889FFF73DFC2012AC
:103B9000FFF743FCE0B2FFF740FC19498889FFF7C3
:103BA00033FC2812FFF739FCE8B2FFF736FC93E04C
:103BB0001348808845F21051884227D1104948891E
:103BC000FFF722FC2012FFF728FC0D494989491C08
:103BD00088B2FFF719FCE0B2FFF71FFC084988899B
:103BE000FFF712FC2812FFF718FC05498989491CC8
:103BF00088B2FFF709FCE8B2FFF70FFC6CE00000A9
:103C0000C0FB00204E0000200020006CFE48808891
:103C100041F66311884228D1FB48807920B9FA48DF
:103C20000088401E001B84B2F7494889FFF7ECFB6F
:103C30002012FFF7F2FBE0B2FFF7EFFB2012FFF7D5
:103C4000ECFBE0B2FFF7E9FBEF498889FFF7DCFB0B
:103C50002812FFF7E2FBE8B2FFF7DFFB2812FFF7BD
:103C6000DCFBE8B2FFF7D9FB36E0E748808846F690
:103C7000040188421DD1E4488079012804D1E2483A
:103C80000088401E001B84B2DF494889FFF7BCFB57
:103C90002012FFF7C2FBE0B2FFF7BFFBDA498889C9
:103CA000FFF7B2FB2812FFF7B8FBE8B2FFF7B5FB4E
:103CB00012E0D5488079012804D1D3480088401EFD
:103CC000001B84B2D04948892146FFF7B8FBCE4992
:103CD00088892946FFF7B3FBCB480089CB49088088
:103CE000881C068070BD70B52DED048B0446BE2087
:103CF000FFF78AFB0520FFF790FB204606F016FC35
:103D000041EC190B9FEDC20B53EC102B06F022FC7B
:103D100041EC180B06F0C6FB85B22846FFF77DFB89
:103D20000120FFF77AFBFF20FFF777FB0020FFF76A
:103D300074FB0020FFF771FBBDEC048B70BD10B568
:103D40000446002C66D1B0498871F02008804FF4F9
:103D5000A07048800846808849F2413188420BD0E3
:103D6000A948808846F60401884205D0A648808884
:103D700045F2103188421AD12C20A34908812A200B
:103D800048812B2088810846808846F604018842B5
:103D900005D09D48808845F21031884206D14FF405
:103DA000A070994908804FF4F0704880A1E09648CF
:103DB000808845F21051884210D14FF4305092491A
:103DC00008814FF4285048814FF42C5088814FF4DB
:103DD000F07008804FF4487048808AE08A488088F4
:103DE00041F6631188420DD12C20874908812B2090
:103DF00048812A2088814FF4F07008804FF4487081
:103E0000488076E0222080490881202048812120B6
:103E100088816EE001207C4988714FF4A070088091
:103E2000F02048800846808849F24131884205D018
:103E30007548808845F21031884207D12C2072499C
:103E400008812A2048812B2088813FE06E488088A5
:103E500046F60401884207D12C206B4908812B20AB
:103E600048812A20888131E06748808845F21051D6
:103E7000884210D14FF43050634908814FF42850E4
:103E800048814FF42C5088814FF4487008804FF4DB
:103E9000F07048801AE05C48808841F663118842DF
:103EA0000DD12C20584908812A2048812B20888157
:103EB0004FF4487008804FF4F070488006E02220EC
:103EC0005149088121204881202088814E488088DE
:103ED00046F60401884205D04B48808845F21031EF
:103EE000884206D14FF4F070474908804FF4A07023
:103EF00048800020FFF7B5FC10BD2DE9F04F86B0DB
:103F000004460D469046994604EB0800401E86B2D2
:103F100005EB0900401E87B23B48808849F24131D9
:103F2000884215D03848808845F2103188420FD039
:103F30003548808846F60401884209D032488079A5
:103F4000012826D13048808841F66311884220D16B
:103F50002D494889FFF758FA2012FFF75EFAE0B2C0
:103F6000FFF75BFA3012FFF758FAF0B2FFF755FA95
:103F700025498889FFF748FA2812FFF74EFAE8B278
:103F8000FFF74BFA3812FFF748FAF8B2FFF745FA95
:103F9000C0E01D48808841F6631188423CD11A4830
:103FA0000088A0EB0800001B84B205EB0900401E4E
:103FB0001FFA80F914494889FFF726FA2012FFF703
:103FC0002CFAE0B2FFF729FA04EB0801491EC1F30D
:103FD0000F20FFF722FA04EB0801491EC8B2FFF7D1
:103FE0001CFA09498889FFF70FFA2812FFF715FA1A
:103FF000E8B2FFF712FA4FEA2920FFF70EFA09F0AC
:10400000FF00FFF70AFA85E0C0FB0020FE1F006CEE
:104010006666666666660440FE48808845F2105112
:10402000884244D1FB494889FFF7EEF92012FFF797
:10403000F4F9F8494989491C88B2FFF7E5F9E0B27B
:10404000FFF7EBF9F3494989891C88B2FFF7DCF9DE
:104050003012FFF7E2F9EF494989C91C88B2FFF72E
:10406000D3F9F0B2FFF7D9F9EA498889FFF7CCF91B
:104070002812FFF7D2F9E7498989491C88B2FFF76E
:10408000C3F9E8B2FFF7C9F9E2498989891C88B206
:10409000FFF7BAF93812FFF7C0F9DE498989C91C60
:1040A00088B2FFF7B1F9F8B2FFF7B7F932E0D948B3
:1040B000807901280ED1AA46BB46D6480088801BCD
:1040C000401E80B20190D3480088001B401E80B281
:1040D000009003E0A246B34601950097502005905A
:1040E000512004905220039053200290514605988D
:1040F000FFF7A5F959460498FFF7A1F9019903982C
:10410000FFF79DF900990298FFF799F92946204693
:10411000FFF7C2F906B0BDE8F08F70B5044600267F
:10412000BC48058840884543BA48808846F6040163
:10413000884216D1B7488079012812D10020B549AC
:1041400088712A2048812B20888100210846FFF7AA
:10415000A3F90120AF4988712B2048812A2088814A
:1041600003E000210846FFF797F9FFF778F90026EA
:1041700002E0A9480480761CAE42FAD370BD00B5B7
:10418000A1B00020209001217A20FDF70BFC012135
:104190000846FDF73FFC4FF480601E9001208DF82B
:1041A0007C0000208DF87E0002208DF87D0001202B
:1041B0008DF87F001EA99948FDF756F94CF233702F
:1041C0001E9002208DF87C0000208DF87E000320D8
:1041D0008DF87D0001208DF87F001EA99048FDF725
:1041E00043F94FF680701E9002208DF87C0000206D
:1041F0008DF87E0003208DF87D0001208DF87F0072
:104200001EA98848FDF730F904201E9002208DF881
:104210007C0000208DF87E0003208DF87D000120B9
:104220008DF87F001EA98048FDF71EF94FF48050DD
:104230001E9002208DF87C0000208DF87E00032067
:104240008DF87D0001208DF87F001EA97648FDF7CE
:104250000BF90C2200217248FDF791F90C22012183
:104260006F48FDF78CF90C2204216D48FDF787F9A2
:104270000C2205216A48FDF782F90C2208216848C2
:10428000FDF77DF90C2209216548FDF778F90C222C
:104290000A216348FDF773F90C220E216048FDF7EF
:1042A0006EF90C220F215E48FDF769F90C220721F7
:1042B0005C48FDF764F90C2208215A48FDF75FF9C4
:1042C0000C2209215748FDF75AF90C220A215548BA
:1042D000FDF755F90C220B215248FDF750F90C223D
:1042E00011465048FDF74BF90C220D214D48FDF7C2
:1042F00046F90C220E214B48FDF741F90C220F2103
:104300004848FDF73CF90C2202214748FDF737F9F0
:104310000C2211464448FDF732F90F200890002086
:1043200009903C200A9000200B900C900D900E906C
:1043300009200190002002900820039000200490A2
:1043400005900690079006200F9000201090119085
:104350001020129000201390159014901690179032
:104360004FF480501890002019904FF480401A901C
:1043700000201B9008A81C9001A81D900FA8FCF716
:1043800024FD01210620FCF7ABFD3220FEF710FFD3
:1043900001210020FFF753F83220FEF709FF00202B
:1043A000FFF752F81B49888008468088FF280ADBFF
:1043B000084680884FF6FF71884204D015488088EF
:1043C000B0F5134F7ED1D320FFF71EF8FFF72FF87B
:1043D00010498880FFF72BF80E498880FFF727F8EF
:1043E0000C498880084680884FF6FF7101EA00205A
:1043F00008498880FFF71BF8064989880843054962
:1044000088800846808849F2413188425AD0BF20CE
:104410000CE00000C0FB00200020006C00140240F3
:10442000000C02400010024000180240FEF7ECFFB2
:10443000FEF7FDFFFE498880FEF7F9FFFC49888002
:10444000FEF7F5FFFA498880FEF7F1FFF84988800A
:10445000084680884FF6FF7101EA0020F449888001
:10446000FEF7E5FFF24989880843F149888008464C
:10447000808846F6040188427AD0D420FEF7C4FF33
:10448000FEF7D5FFEA498880FEF7D1FFE84988802A
:10449000FEF7CDFFE6498880084680884FF6FF7119
:1044A00001EA0020E2498880FEF7C1FFE0498988DF
:1044B0000843DF4988800846808845F210318842E9
:1044C00056D000E054E04FF45A40FEF79DFFFEF74F
:1044D000AEFFD74988804FF45B40FEF795FFFEF7AB
:1044E000A6FFD3498880084680884FF6FF7101EA0D
:1044F0000020CF4988804FF45C40FEF785FFFEF72F
:1045000096FFCB4989880843C94988800846808836
:10451000B0F5004F02D145F210508880C448808821
:1045200045F21051884223D0A120FEF76DFFFEF71F
:104530007EFFBF498880FEF77AFFBD498880084624
:1045400080884FF6FF7101EA0020B9498880FEF7A4
:104550006EFFB74989880843B54988800846808836
:1045600045F26171884203D141F66310B0498880F9
:10457000AF48808849F24131884211D0AC488088E8
:1045800045F2103188420BD0A948808845F210517D
:10459000884205D0A648808841F6631188421DD123
:1045A000A448006820F00F004FF02041C1F81C0122
:1045B0000846D0F81C0120F47060C1F81C010846C0
:1045C000D0F81C0140F00300C1F81C010846D0F8E7
:1045D0001C0140F40070C1F81C0128E09448808858
:1045E00046F60401884205D0914880884CF2055176
:1045F00088421CD18F48006820F00F004FF0204106
:10460000C1F81C010846D0F81C0120F47060C1F804
:104610001C010846D0F81C0140F00A00C1F81C013A
:104620000846D0F81C0140F44060C1F81C018048E5
:10463000818881A004F014FD7D48808849F24131D1
:1046400088427CD1CF20FEF7DFFE0020FEF7E5FE9A
:10465000C120FEF7E2FE3020FEF7DFFEED20FEF780
:10466000D3FE6420FEF7D9FE0320FEF7D6FE12200B
:10467000FEF7D3FE8120FEF7D0FEE820FEF7C4FE51
:104680008520FEF7CAFE1020FEF7C7FE7A20FEF74F
:10469000C4FECB20FEF7B8FE3920FEF7BEFE2C206C
:1046A000FEF7BBFE0020FEF7B8FE3420FEF7B5FE95
:1046B0000220FEF7B2FEF720FEF7A6FE2020FEF74E
:1046C000ACFEEA20FEF7A0FE0020FEF7A6FE0020CA
:1046D000FEF7A3FEC020FEF797FE1B20FEF79DFE0F
:1046E000C120FEF791FE0120FEF797FEC520FEF7E0
:1046F0008BFE3020FEF791FE3020FEF78EFEC720A5
:10470000FEF782FEB720FEF788FE3620FEF77CFE1D
:104710004820FEF782FE3A20FEF776FE5520FEF78F
:104720007CFEB120FEF770FE0020FEF776FE1A2018
:10473000FEF773FEB620FEF767FE0A2000E0A6E053
:10474000FEF76BFEA220FEF768FEF220FEF75CFE8D
:104750000020FEF762FE2620FEF756FE0120FEF73F
:104760005CFEE020FEF750FE0F20FEF756FE2A20EA
:10477000FEF753FE2820FEF750FE0820FEF74DFE00
:104780000E20FEF74AFE0820FEF747FE5420FEF7F3
:1047900044FEA920FEF741FE4320FEF73EFE0A201C
:1047A000FEF73BFE0F20FEF738FE0020FEF735FE39
:1047B0000020FEF732FE0020FEF72FFE0020FEF75D
:1047C0002CFEE120FEF720FE0020FEF726FE15203D
:1047D000FEF723FE1720FEF720FE0720FEF71DFE42
:1047E0001120FEF71AFE0620FEF717FE2B20FEF71B
:1047F00014FE5620FEF711FE3C20FEF70EFE0520AB
:10480000FEF70BFE1020FEF708FE0F20FEF705FE58
:104810003F20FEF702FE3F20FEF7FFFD0F20FEF7D0
:10482000FCFD2B20FEF7F0FD0020FEF7F6FD0BE06F
:10483000C0FB00201C0100A0204C43442049443A06
:1048400025780D0A000000000020FEF7E6FD01209B
:10485000FEF7E3FD3F20FEF7E0FD2A20FEF7D4FD42
:104860000020FEF7DAFD0020FEF7D7FD0020FEF75E
:10487000D4FDEF20FEF7D1FD1120FEF7C5FD782015
:10488000FEF796FC2920FEF7BFFD03F01DB9FE4898
:10489000808846F6040188427ED11120FEF7B4FDDF
:1048A0001420FEF785FCD020FEF7AEFD0720FEF7B2
:1048B000B4FD4220FEF7B1FD1D20FEF7AEFDD12074
:1048C000FEF7A2FD0020FEF7A8FD1A20FEF7A5FDC9
:1048D0000920FEF7A2FDD220FEF796FD0120FEF78B
:1048E0009CFD2220FEF799FDC020FEF78DFD1020D3
:1048F000FEF793FD3B20FEF790FD0020FEF78DFDB7
:104900000220FEF78AFD1120FEF787FDC520FEF785
:104910007BFD0320FEF781FDC820FEF775FD00201A
:10492000FEF77BFD2520FEF778FD2120FEF775FDC3
:104930000520FEF772FD0020FEF76FFD0A20FEF74E
:104940006CFD6520FEF769FD2520FEF766FD7720EA
:10495000FEF763FD5020FEF760FD0F20FEF75DFDC2
:104960000020FEF75AFDF820FEF74EFD0120FEF76D
:1049700054FDFE20FEF748FD0020FEF74EFD02200C
:10498000FEF74BFD2020FEF73FFD3620FEF73CFDF5
:104990000820FEF742FD00E02AE03A20FEF734FD51
:1049A0005520FEF73AFD2B20FEF72EFD0020FEF7E6
:1049B00034FD0020FEF731FD0120FEF72EFD3F20E3
:1049C000FEF72BFD2A20FEF71FFD0020FEF725FD38
:1049D0000020FEF722FD0120FEF71FFDDF20FEF77D
:1049E0001CFD7820FEF7E4FB2920FEF70DFD4CE7C7
:1049F000A548808845F21031884240F07C87ED2040
:104A0000FEF702FD0120FEF708FDFE20FEF705FD82
:104A1000EE20FEF7F9FCDE20FEF7FFFC2120FEF77A
:104A2000FCFCF120FEF7F0FC0120FEF7F6FCDF2095
:104A3000FEF7EAFC1020FEF7F0FCC420FEF7E4FCD1
:104A40008F20FEF7EAFCC620FEF7DEFC0020FEF712
:104A5000E4FCE220FEF7E1FCE220FEF7DEFCE220CF
:104A6000FEF7DBFCBF20FEF7CFFCAA20FEF7D5FC4B
:104A7000B020FEF7C9FC0D20FEF7CFFC0020FEF7AA
:104A8000CCFC0D20FEF7C9FC0020FEF7C6FC11206F
:104A9000FEF7C3FC0020FEF7C0FC1920FEF7BDFCAA
:104AA0000020FEF7BAFC2120FEF7B7FC0020FEF73D
:104AB000B4FC2D20FEF7B1FC0020FEF7AEFC3D203B
:104AC000FEF7ABFC0020FEF7A8FC5D20FEF7A5FC7E
:104AD0000020FEF7A2FC5D20FEF79FFC0020FEF701
:104AE0009CFCB120FEF790FC8020FEF796FC002095
:104AF000FEF793FC8B20FEF790FC0020FEF78DFC68
:104B00009620FEF78AFC0020FEF787FCB220FEF715
:104B10007BFC0020FEF781FC0020FEF77EFC0220DB
:104B2000FEF77BFC0020FEF778FC0320FEF775FC07
:104B30000020FEF772FCB320FEF766FC0020FEF7B3
:104B40006CFC0020FEF769FC0020FEF766FC0020EC
:104B5000FEF763FC0020FEF760FC0020FEF75DFC22
:104B60000020FEF75AFC0020FEF757FC0020FEF75D
:104B700054FC0020FEF751FC0020FEF74EFC002004
:104B8000FEF74BFC0020FEF748FC0020FEF745FC3A
:104B90000020FEF742FC0020FEF73FFC0020FEF75D
:104BA0003CFC0020FEF739FC0020FEF736FC00201C
:104BB000FEF733FC0020FEF730FC0020FEF72DFC52
:104BC0000020FEF72AFC0020FEF727FCB420FEF7A9
:104BD0001BFC8B20FEF721FC0020FEF71EFC96201C
:104BE000FEF71BFC0020FEF718FCA120FEF715FCC9
:104BF0000020FEF712FCB520FEF706FC0220FEF7AF
:104C00000CFC0020FEF709FC0320FEF706FC002048
:104C1000FEF703FC0420FEF700FC0020FEF7FDFB7E
:104C2000B620FEF7F1FB0020FEF7F7FB0020FEF7B1
:104C3000F4FBB720FEF7E8FB0020FEF7EEFB0020B8
:104C4000FEF7EBFB3F20FEF7E8FB0020FEF7E5FB5D
:104C50005E20FEF7E2FB0020FEF7DFFB6420FEF79C
:104C6000DCFB0020FEF7D9FB8C20FEF7D6FB0020F2
:104C7000FEF7D3FBAC20FEF7D0FB0020FEF7CDFB08
:104C8000DC20FEF7CAFB01E0C0FB00200020FEF79D
:104C9000C4FB7020FEF7C1FB0020FEF7BEFB902096
:104CA000FEF7BBFB0020FEF7B8FBEB20FEF7B5FBE1
:104CB0000020FEF7B2FBDC20FEF7AFFB0020FEF782
:104CC000ACFBB820FEF7A0FB0020FEF7A6FB0020FF
:104CD000FEF7A3FB0020FEF7A0FB0020FEF79DFBE4
:104CE0000020FEF79AFB0020FEF797FB0020FEF75E
:104CF00094FB0020FEF791FBBA20FEF785FB2420F1
:104D0000FEF78BFB0020FEF788FB0020FEF785FBFB
:104D10000020FEF782FBC120FEF776FB2020FEF785
:104D20007CFB0020FEF779FB5420FEF776FB002089
:104D3000FEF773FBFF20FEF770FB0020FEF76DFB14
:104D4000C220FEF761FB0A20FEF767FB0020FEF79A
:104D500064FB0420FEF761FB0020FEF75EFBC3202E
:104D6000FEF752FB3C20FEF758FB0020FEF755FBF8
:104D70003A20FEF752FB0020FEF74FFB3920FEF7EA
:104D80004CFB0020FEF749FB3720FEF746FB0020D6
:104D9000FEF743FB3C20FEF740FB0020FEF73DFB07
:104DA0003620FEF73AFB0020FEF737FB3220FEF7F5
:104DB00034FB0020FEF731FB2F20FEF72EFB0020F6
:104DC000FEF72BFB2C20FEF728FB0020FEF725FB2F
:104DD0002920FEF722FB0020FEF71FFB2620FEF70E
:104DE0001CFB0020FEF719FB2420FEF716FB002019
:104DF000FEF713FB2420FEF710FB0020FEF70DFB4F
:104E00002320FEF70AFB0020FEF707FB3C20FEF7FD
:104E100004FB0020FEF701FB3620FEF7FEFA00201F
:104E2000FEF7FBFA3220FEF7F8FA0020FEF7F5FA5B
:104E30002F20FEF7F2FA0020FEF7EFFA2C20FEF703
:104E4000ECFA0020FEF7E9FA2920FEF7E6FA002046
:104E5000FEF7E3FA2620FEF7E0FA0020FEF7DDFA7F
:104E60002420FEF7DAFA0020FEF7D7FA2420FEF716
:104E7000D4FA0020FEF7D1FA2320FEF7CEFA002064
:104E8000FEF7CBFAC420FEF7BFFA6220FEF7C5FAA0
:104E90000020FEF7C2FA0520FEF7BFFA0020FEF759
:104EA000BCFA8420FEF7B9FA0020FEF7B6FAF0202B
:104EB000FEF7B3FA0020FEF7B0FA1820FEF7ADFABD
:104EC0000020FEF7AAFAA420FEF7A7FA0020FEF7BA
:104ED000A4FA1820FEF7A1FA0020FEF79EFA50204F
:104EE000FEF79BFA0020FEF798FA0C20FEF795FAE1
:104EF0000020FEF792FA1720FEF78FFA0020FEF747
:104F00008CFA9520FEF789FA0020FEF786FAF32046
:104F1000FEF783FA0020FEF780FAE620FEF77DFA1E
:104F20000020FEF77AFAC520FEF76EFA3220FEF76F
:104F300074FA0020FEF771FA4420FEF76EFA0020A2
:104F4000FEF76BFA6520FEF768FA0020FEF765FAB7
:104F50007620FEF762FA0020FEF75FFA8820FEF75F
:104F60005CFA0020FEF759FAC620FEF74DFA202021
:104F7000FEF753FA0020FEF750FA1720FEF74DFA1D
:104F80000020FEF74AFA0120FEF747FA0020FEF75C
:104F900044FAC720FEF738FA0020FEF73EFA002058
:104FA000FEF73BFA0020FEF738FA0020FEF735FA4C
:104FB000C820FEF729FA0020FEF72FFA0020FEF79E
:104FC0002CFA0020FEF729FA0020FEF726FAC92065
:104FD000FEF71AFA0020FEF720FA0020FEF71DFA6D
:104FE0000020FEF71AFA0020FEF717FA0020FEF75D
:104FF00014FA0020FEF711FA0020FEF70EFA002046
:10500000FEF70BFA0020FEF708FA0020FEF705FA7B
:105010000020FEF702FA0020FEF7FFF90020FEF75D
:10502000FCF90020FEF7F9F90020FEF7F6F9002060
:10503000FEF7F3F9E020FEF7E7F91620FEF7EDF9A9
:105040000020FEF7EAF91C20FEF7E7F90020FEF742
:10505000E4F92120FEF7E1F90020FEF7DEF9362021
:10506000FEF7DBF90020FEF7D8F94620FEF7D5F968
:105070000020FEF7D2F95220FEF7CFF90020FEF70C
:10508000CCF96420FEF7C9F90020FEF7C6F97A20B2
:10509000FEF7C3F90020FEF7C0F98B20FEF7BDF93B
:1050A0000020FEF7BAF99920FEF7B7F90020FEF7C5
:1050B000B4F9A820FEF7B1F90020FEF7AEF9B92047
:1050C000FEF7ABF90020FEF7A8F9C420FEF7A5F91A
:1050D0000020FEF7A2F9CA20FEF79FF90020FEF794
:1050E0009CF9D220FEF799F90020FEF796F9D92015
:1050F000FEF793F90020FEF790F9E020FEF78DF916
:105100000020FEF78AF9F320FEF787F90020FEF76A
:1051100084F9E120FEF778F91620FEF77EF90020E9
:10512000FEF77BF91C20FEF778F90020FEF775F9F1
:105130002220FEF772F90020FEF76FF93620FEF705
:105140006CF90020FEF769F94520FEF766F90020AA
:10515000FEF763F95220FEF760F90020FEF75DF9D3
:105160006420FEF75AF90020FEF757F97A20FEF77F
:1051700054F90020FEF751F98B20FEF74EF900207C
:10518000FEF74BF99920FEF748F90020FEF745F9A4
:10519000A820FEF742F90020FEF73FF9B920FEF7FC
:1051A0003CF90020FEF739F9C420FEF736F900205B
:1051B000FEF733F9CA20FEF730F90020FEF72DF98B
:1051C000D220FEF72AF90020FEF727F9D820FEF7B3
:1051D00024F90020FEF721F9E020FEF71EF9002057
:1051E000FEF71BF9F320FEF718F90020FEF715F97A
:1051F000E220FEF709F90520FEF70FF90020FEF77F
:105200000CF90B20FEF709F90020FEF706F91B2028
:10521000FEF703F90020FEF700F93420FEF7FDF851
:105220000020FEF7FAF84420FEF7F7F80020FEF71A
:10523000F4F84F20FEF7F1F80020FEF7EEF86120B9
:10524000FEF7EBF80020FEF7E8F87920FEF7E5F826
:105250000020FEF7E2F88820FEF7DFF80020FEF7D6
:10526000DCF89720FEF7D9F80020FEF7D6F8A62044
:10527000FEF7D3F80020FEF7D0F8B720FEF7CDF800
:105280000020FEF7CAF8C220FEF7C7F80020FEF79C
:10529000C4F8C720FEF7C1F80020FEF7BEF8D12001
:1052A000FEF7BBF80020FEF7B8F8D620FEF7B5F8F9
:1052B0000020FEF7B2F8DD20FEF7AFF80020FEF781
:1052C000ACF8F320FEF7A9F80020FEF7A6F8E320DB
:1052D000FEF79AF80520FEF7A0F80020FEF79DF8EB
:1052E0000A20FEF79AF80020FEF797F81C20FEF738
:1052F00094F80020FEF791F83320FEF78EF8002096
:10530000FEF78BF84420FEF788F80020FEF785F8BA
:105310005020FEF782F80020FEF77FF86220FEF7AB
:105320007CF80020FEF779F87820FEF776F8002068
:10533000FEF773F88820FEF770F80020FEF76DF88E
:105340009720FEF76AF80020FEF767F8A620FEF720
:1053500064F80020FEF761F8B720FEF75EF8002041
:10536000FEF75BF8C220FEF758F80020FEF755F86C
:10537000C720FEF752F80020FEF74FF8D120FEF7C5
:105380004CF80020FEF749F8D520FEF746F800203B
:10539000FEF743F8DD20FEF740F80020FEF73DF869
:1053A000F320FEF73AF80020FEF737F8E420FEF786
:1053B0002BF80120FEF731F80020FEF72EF801202F
:1053C000FEF72BF80020FEF728F80220FEF725F85C
:1053D0000020FEF722F82A20FEF71FF80020FEF733
:1053E0001CF83C20FEF719F80020FEF716F84B20B9
:1053F000FEF713F80020FEF710F85D20FEF70DF819
:105400000020FEF70AF87420FEF707F80020FEF7E8
:1054100004F88420FEF701F80020FDF7FEFF93203A
:10542000FDF7FBFF0020FDF7F8FFA220FDF7F5FFD9
:105430000020FDF7F2FFB320FDF7EFFF0020FDF79E
:10544000ECFFBE20FDF7E9FF0020FDF7E6FFC420DA
:10545000FDF7E3FF0020FDF7E0FFCD20FDF7DDFFC6
:105460000020FDF7DAFFD320FDF7D7FF0020FDF77E
:10547000D4FFDD20FDF7D1FF0020FDF7CEFFF320A4
:10548000FDF7CBFF0020FDF7C8FFE520FDF7BCFFCF
:105490000020FDF7C2FF0020FDF7BFFF0020FDF751
:1054A000BCFF0020FDF7B9FF0220FDF7B6FF00208A
:1054B000FDF7B3FF2920FDF7B0FF0020FDF7ADFF9A
:1054C0003C20FDF7AAFF0020FDF7A7FF4B20FDF7CA
:1054D000A4FF0020FDF7A1FF5D20FDF79EFF002047
:1054E000FDF79BFF7420FDF798FF0020FDF795FF67
:1054F0008420FDF792FF0020FDF78FFF9320FDF73A
:105500008CFF0020FDF789FFA220FDF786FF002019
:10551000FDF783FFB320FDF780FF0020FDF77DFF3F
:10552000BE20FDF77AFF0020FDF777FFC420FDF7CE
:1055300074FF0020FDF771FFCD20FDF76EFF002006
:10554000FDF76BFFD320FDF768FF0020FDF765FF37
:10555000DC20FDF762FF0020FDF75FFFF320FDF781
:105560005CFF0020FDF759FFE620FDF74DFF1120FD
:10557000FDF753FF0020FDF750FF3420FDF74DFFEE
:105580000020FDF74AFF5620FDF747FF0020FDF7FA
:1055900044FF7620FDF741FF0020FDF73EFF772016
:1055A000FDF73BFF0020FDF738FF6620FDF735FFD4
:1055B0000020FDF732FF8820FDF72FFF0020FDF7C8
:1055C0002CFF9920FDF729FF0020FDF726FFBB20C7
:1055D000FDF723FF0020FDF720FF9920FDF71DFFB9
:1055E0000020FDF71AFF6620FDF717FF0020FDF7EA
:1055F00014FF5520FDF711FF0020FDF70EFF552089
:10560000FDF70BFF0020FDF708FF4520FDF705FF24
:105610000020FDF702FF4320FDF7FFFE0020FDF70D
:10562000FCFE4420FDF7F9FE0020FDF7F6FEE72022
:10563000FDF7EAFE3220FDF7F0FE0020FDF7EDFE5B
:105640005520FDF7EAFE0020FDF7E7FE7620FDF786
:10565000E4FE0020FDF7E1FE6620FDF7DEFE0020FF
:10566000FDF7DBFE6720FDF7D8FE0020FDF7D5FE35
:105670006720FDF7D2FE0020FDF7CFFE8720FDF763
:10568000CCFE0020FDF7C9FE9920FDF7C6FE0020E4
:10569000FDF7C3FEBB20FDF7C0FE0020FDF7BDFEF9
:1056A0009920FDF7BAFE0020FDF7B7FE7720FDF741
:1056B000B4FE0020FDF7B1FE4420FDF7AEFE002051
:1056C000FDF7ABFE5620FDF7A8FE0020FDF7A5FE76
:1056D0002320FDF7A2FE0020FDF79FFE3320FDF7FB
:1056E0009CFE0020FDF799FE4520FDF796FE002068
:1056F000FDF793FEE820FDF787FE0020FDF78DFE05
:105700000020FDF78AFE9920FDF787FE0020FDF7B7
:1057100084FE8720FDF781FE0020FDF77EFE8820B5
:10572000FDF77BFE0020FDF778FE7720FDF775FE84
:105730000020FDF772FE6620FDF76FFE0020FDF7EA
:105740006CFE8820FDF769FE0020FDF766FEAA20AA
:10575000FDF763FE0020FDF760FEBB20FDF75DFE58
:105760000020FDF75AFE9920FDF757FE0020FDF7B7
:1057700054FE6620FDF751FE0020FDF74EFE552039
:10578000FDF74BFE0020FDF748FE5520FDF745FED6
:105790000020FDF742FE4420FDF73FFE0020FDF70C
:1057A0003CFE4420FDF739FE0020FDF736FE552073
:1057B000FDF733FE0020FDF730FEE920FDF724FE63
:1057C000AA20FDF72AFE0020FDF727FE0020FDF7A6
:1057D00024FE0020FDF721FE0020FDF715FEAA2083
:1057E000FDF71BFECF20FDF70FFE0020FDF715FE95
:1057F0000020FDF712FE0020FDF70FFE0020FDF750
:105800000CFE0020FDF709FE0020FDF706FE00203B
:10581000FDF703FE0020FDF700FE0020FDF7FDFD73
:105820000020FDF7FAFD0020FDF7F7FD0020FDF751
:10583000F4FD0020FDF7F1FD0020FDF7EEFD002056
:10584000FDF7EBFD0020FDF7E8FD0020FDF7E5FD8D
:10585000F020FDF7D9FD0020FDF7DFFD5020FDF71A
:10586000DCFD0020FDF7D9FD0020FDF7D6FD00206E
:10587000FDF7D3FDF320FDF7C7FD0020FDF7CDFDBB
:10588000F920FDF7C1FD0620FDF7C7FD1020FDF74B
:10589000C4FD2920FDF7C1FD0020FDF7BEFD3A2023
:1058A000FDF7B2FD5520FDF7B8FD1120FDF7ACFD69
:1058B0006420FDF77DFC2920FDF7A6FD3520FDF7CE
:1058C000A3FD0020FDF7A9FD5120FDF79DFDFF2060
:1058D000FDF7A3FD5320FDF797FD2C20FDF79DFD5F
:1058E0005520FDF791FD8220FDF797FD2C20FDF757
:1058F0008BFD02F0E9B8FE48808845F210518842DD
:105900007ED155214FF47040FDF799FDAA214FF249
:105910000100FDF794FD52214FF20200FDF78FFDCB
:1059200008214FF20300FDF78AFD01214FF2040028
:10593000FDF785FD0D214FF43040FDF780FD0D2171
:105940004BF20100FDF77BFD0D214BF20200FDF74C
:1059500076FD34214FF43640FDF771FD34214BF2D2
:105960000160FDF76CFD34214BF20260FDF767FD2D
:105970000D214FF43140FDF762FD0D214BF2011076
:10598000FDF75DFD0D214BF20210FDF758FD3421AE
:105990004FF43740FDF753FD34214BF20170FDF712
:1059A0004EFD34214BF20270FDF749FD00214FF40A
:1059B0003240FDF744FD00214BF20120FDF73FFD91
:1059C00000214BF20220FDF73AFD24214FF438402C
:1059D000FDF735FD24214BF60100FDF730FD2421B4
:1059E0004BF60200FDF72BFD01214FF43F40FDF780
:1059F00026FD0F214FF43340FDF721FD0F2100E07C
:105A0000FEE34BF20130FDF71AFD0F214BF202309D
:105A1000FDF715FD34214FF43940FDF710FD342119
:105A20004BF60110FDF70BFD34214BF60210FDF78C
:105A300006FD08214FF43540FDF701FD08214BF22A
:105A40000150FDF7FCFC08214BF20250FDF7F7FC7A
:105A500003214FF44240FDF7F2FC24214FF43A4079
:105A6000FDF7EDFC24214BF60120FDF7E8FC242195
:105A70004BF60220FDF7E3FC00214FF43C40FDF71C
:105A8000DEFC78214BF60140FDF7D9FC00214BF6F6
:105A90000240FDF7D4FC00214FF43D40FDF7CFFC60
:105AA00078214BF60150FDF7CAFC00214BF602505D
:105AB000FDF7C5FC00214FF43E40FDF7C0FC64211A
:105AC0004BF60160FDF7BBFC00214FF45140FDF7A0
:105AD000B6FC33214DF20110FDF7B1FC00214DF26F
